:100000000C945D000C9485000C9485000C94850084
:100010000C9485000C9485000C9485000C9485004C
:100020000C9485000C9485000C9485000C9485003C
:100030000C9485000C9485000C9485000C9485002C
:100040000C943D030C9485000C940B030C94E50276
:100050000C9485000C9485000C9485000C9485000C
:100060000C9485000C94850000000008000201003B
:100070000003040700000000000000000000000072
:10008000250028002B0000000000240027002A0083
:10009000040404040404040402020202020203032E
:1000A0000303030301020408102040800102040836
:1000B0001020010204081020870311241FBECFEF77
:1000C000D8E0DEBFCDBF22E0A2E4B1E001C01D92C6
:1000D000A233B207E1F711E0A0E0B1E0E0E6FCE016
:1000E00002C005900D92A234B107D9F710E0CDE51A
:1000F000D0E004C02197FE010E942806CC35D1072C
:10010000C9F70E94C6030C942E060C940000AF920F
:10011000BF92CF92DF92EF92FF920F931F93CF93F4
:10012000DF936C017B018B01040F151FEB015E0156
:10013000AE18BF08C017D10759F06991D601ED91EB
:10014000FC910190F081E02DC6010995892B79F78A
:10015000C501DF91CF911F910F91FF90EF90DF903C
:10016000CF90BF90AF900895FC01538D448D252F03
:1001700030E0842F90E0821B930B541710F0CF9641
:10018000089501970895FC01918D828D981761F073
:10019000A28DAE0FBF2FB11D5D968C91928D9F5F8A
:1001A0009F73928F90E008958FEF9FEF0895FC0169
:1001B000918D828D981731F0828DE80FF11D858D1C
:1001C00090E008958FEF9FEF0895FC01918D228DAF
:1001D000892F90E0805C9F4F821B91098F73992734
:1001E00008958FE491E00E94E50021E0892B09F455
:1001F00020E0822F089580E090E0892B29F00E9472
:10020000F10081110C9400000895FC01A48DA80F49
:10021000B92FB11DA35ABF4F2C91848D90E0019648
:100220008F739927848FA689B7892C93A089B18968
:100230008C91837080648C93938D848D981306C009
:100240000288F389E02D80818F7D80830895EF926D
:10025000FF920F931F93CF93DF93EC0181E0888F80
:100260009B8D8C8D98131AC0E889F989808185FF50
:1002700015C09FB7F894EE89FF896083E889F989F2
:1002800080818370806480839FBF81E090E0DF91F4
:10029000CF911F910F91FF90EF900895F62E0B8D47
:1002A00010E00F5F1F4F0F731127E02E8C8D8E1102
:1002B0000CC00FB607FCFACFE889F989808185FF69
:1002C000F5CFCE010E940501F1CFEB8DEC0FFD2F94
:1002D000F11DE35AFF4FF0829FB7F8940B8FEA8924
:1002E000FB8980818062CFCFCF93DF93EC01888D33
:1002F0008823B9F0AA89BB89E889F9898C9185FDA1
:1003000003C0808186FD0DC00FB607FCF7CF8C912E
:1003100085FFF2CF808185FFEDCFCE010E940501E0
:10032000E9CFDF91CF91089590E0FC01E859FF4FAC
:100330002491FC01EC55FF4F3491FC01E057FF4F35
:10034000E491EE23C9F0222339F0233001F1A8F41F
:10035000213019F1223029F1F0E0EE0FFF1FE458AF
:10036000FF4FA591B4918FB7F894EC91611126C01D
:1003700030953E233C938FBF08952730A9F0283055
:10038000C9F0243049F7809180008F7D03C08091AF
:1003900080008F7780938000DFCF84B58F7784BD16
:1003A000DBCF84B58F7DFBCF8091B0008F778093BA
:1003B000B000D2CF8091B0008F7DF9CF3E2BDACF45
:1003C0003FB7F8948091470190914801A09149016D
:1003D000B0914A0126B5A89B05C02F3F19F00196A0
:1003E000A11DB11D3FBFBA2FA92F982F8827BC018F
:1003F000CD01620F711D811D911D42E0660F771FB7
:10040000881F991F4A95D1F708958F929F92AF92B6
:10041000BF92CF92DF92EF92FF920E94E0014B01D8
:100420005C0188EEC82E83E0D82EE12CF12C0E94CE
:10043000E001681979098A099B09683E73408105C2
:100440009105A8F321E0C21AD108E108F10888EE6D
:10045000880E83E0981EA11CB11CC114D104E104D4
:10046000F10429F7FF90EF90DF90CF90BF90AF900D
:100470009F908F9008952FB7F894609143017091E9
:10048000440180914501909146012FBF0895FC01E0
:1004900001900020E9F73197AF01481B590BBC01CF
:1004A0008FE491E00C9487008F929F92AF92BF925D
:1004B0000F931F93CF93DF93CDB7DEB7A1970FB6FE
:1004C000F894DEBF0FBECDBF19A2423008F44AE057
:1004D0008E010F5D1F4F842E912CB12CA12CA501F4
:1004E00094010E940606E62FB901CA01EA30F4F42D
:1004F000E05DD801EE938D01232B242B252B79F77A
:1005000090E080E0109719F0CD010E944702A1967B
:100510000FB6F894DEBF0FBECDBFDF91CF911F9114
:100520000F91BF90AF909F908F900895E95CE1CFBD
:100530001F93CF93DF9300D000D0CDB7DEB78FE409
:1005400091E00E94C3008FE491E00E94C30010E09C
:100550008A3379F0E1E0F0E0EC0FFD1FE10FF11DCF
:1005600017FDFA9580831F5F8FE491E00E94C3001E
:10057000EFCFCE0101960E94E005182F8FE491E0A5
:100580000E94C3008053990B8230910520F4682F9C
:10059000812F0E9494018FE491E00E94C3008A3071
:1005A00011F08D30C1F78FE491E00E94D7008A30BE
:1005B00021F48FE491E00E94C3000F900F900F9000
:1005C0000F90DF91CF911F9108951F920F920FB658
:1005D0000F9211242F933F934F935F936F937F93C9
:1005E0008F939F93AF93BF93EF93FF938FE491E02B
:1005F0000E940501FF91EF91BF91AF919F918F9163
:100600007F916F915F914F913F912F910F900FBE0E
:100610000F901F9018951F920F920FB60F921124F2
:100620002F938F939F93EF93FF93E0915F01F0914E
:1006300060018081E0916501F091660182FD1BC03F
:100640009081809168018F5F8F732091690182177B
:1006500041F0E0916801F0E0E15BFE4F958F8093FF
:100660006801FF91EF919F918F912F910F900FBE95
:100670000F901F9018958081F4CF1F920F920FB6A4
:100680000F9211242F933F938F939F93AF93BF9318
:100690008091430190914401A0914501B0914601A0
:1006A0003091420123E0230F2D3758F50196A11D0B
:1006B000B11D209342018093430190934401A09384
:1006C0004501B09346018091470190914801A09166
:1006D0004901B0914A010196A11DB11D80934701C6
:1006E00090934801A0934901B0934A01BF91AF9103
:1006F0009F918F913F912F910F900FBE0F901F9060
:10070000189526E8230F0296A11DB11DD2CFEFE464
:10071000F1E01382128288EE93E0A0E0B0E08483DF
:100720009583A683B78384E091E09183808385ECF1
:1007300090E09587848784EC90E09787868780ECAB
:1007400090E0918B808B81EC90E0938B828B82EC9C
:1007500090E0958B848B86EC90E0978B868B118E46
:10076000128E138E148EECEEF1E016821782108634
:100770001186128613861486158616861786108AA9
:10078000118A128A138A148A158A0895789484B576
:10079000826084BD84B5816084BD85B5826085BD7D
:1007A00085B5816085BD80916E00816080936E000B
:1007B00010928100809181008260809381008091FD
:1007C00081008160809381008091800081608093AE
:1007D00080008091B10084608093B1008091B0006E
:1007E00081608093B00080917A00846080937A0069
:1007F00080917A00826080937A0080917A00816093
:1008000080937A0080917A00806880937A001092B9
:10081000C10010922E0210922F02109230021092FC
:1008200031021092EE011092EF011092F00110923D
:10083000F1010E943B026B017C014B015C0128EB42
:10084000820E2BE0921EA11CB11C0E943B026C1573
:100850007D058E059F0528F086169706A806B90621
:10086000A0F70E940502E0915F01F091600182E033
:100870008083E0915B01F0915C011082E0915D0169
:10088000F0915E0180E1808310926701E091630145
:10089000F091640186E08083E0916101F091620152
:1008A000808180618083E0916101F09162018081AB
:1008B00088608083E0916101F091620180818068AD
:1008C0008083E0916101F091620180818F7D80835E
:1008D0000E943B026093EE017093EF018093F00160
:1008E0009093F10182E191E00E9447020E943B0255
:1008F0006B017C014B015C013AE0830E911CA11C51
:10090000B11C0E943B026C157D058E059F0528F0E9
:1009100086169706A806B906A0F781E08093020222
:100920000E943B026093EE017093EF018093F0010F
:100930009093F10183E291E00E944702E1EBF0E045
:100940002491EDE9F0E08491882399F090E0880FFC
:10095000991FFC01EA57FF4FA591B491FC01E4589F
:10096000FF4F859194918FB7F894EC91E22BEC9323
:100970008FBFC0E0D0E084EF882E99249394A12CFF
:10098000B12C0E943B02672B682B692B09F4F0C045
:100990000E943B02C0904B01D0904C01E0904D0171
:1009A000F0904E016C157D058E059F0508F4FFC083
:1009B000C0904B01D0904C01E0904D01F0904E0161
:1009C0009B01AC012C193D094E095F0969017A01AF
:1009D0003AEFC316D104E104F10408F4D1C06093E6
:1009E0004B0170934C0180934D0190934E01809286
:1009F000FA019092FB01A092FC01B092FD011092CD
:100A0000FE011092FF0110920002109201028091EB
:100A1000F2019091F301A091F401B091F50180935E
:100A2000F6019093F701A093F801B093F9010E94A9
:100A30003B026093F2017093F3018093F401909371
:100A4000F5018FE491E00E94D700843611F40E94F2
:100A500098020E943B026093EE017093EF01809335
:100A6000F0019093F1010E943B026B017C018AE24C
:100A700091E00E9447024AE061E070E080E090E08F
:100A80000E94540281E391E00E9447024AE0C701BC
:100A9000B6010E94540283E391E00E9447028091D4
:100AA000F2019091F301A091F401B091F501A70139
:100AB0009601281B390B4A0B5B0BCA01B9014AE0AE
:100AC0000E94540283E391E00E9447026091F20188
:100AD0007091F3018091F4019091F501C090F601BD
:100AE000D090F701E090F801F090F9016C197D09C0
:100AF0008E099F094AE00E94540285E391E00E941A
:100B000047020E943B024AE00E94540287E391E0C0
:100B10000E9447028EE391E00E9447020E943B023E
:100B20002B013C017C016B0135E0C30ED11CE11CA3
:100B3000F11C0E943B02641575058605970528F097
:100B4000C616D706E806F906A0F78FE491E00E94E2
:100B5000D700843611F40E9498020E943B026093F1
:100B6000F2017093F3018093F4019093F50108C0B2
:100B70000E943B02623071058105910508F008CFA3
:100B800061E08DE00E9494010E94050260E08DE02A
:100B90000E9494010E940502209709F4F2CE0E945F
:100BA000F100882309F4EDCE0E940000EACE6093A4
:100BB0004B0170934C0180934D0190934E01F8CE00
:100BC000FC0188279927E89421912032E9F3293004
:100BD00010F02E30C8F32B3241F02D3239F46894E6
:100BE00004C00E94FE05820F911D219120532A30DE
:100BF000C0F31EF4909581959F4F08957AE0979FDA
:100C0000902D879F802D910D11240895A1E21A2E19
:100C1000AA1BBB1BFD010DC0AA1FBB1FEE1FFF1FA0
:100C2000A217B307E407F50720F0A21BB30BE40BF0
:100C3000F50B661F771F881F991F1A9469F7609537
:100C40007095809590959B01AC01BD01CF010895F1
:100C5000EE0FFF1F0590F491E02D0994F894FFCF5B
:100C60000000000027018700B4007401E500C30004
:100C7000D700564D4450565F317C315F564D44503D
:100C8000560A00564D4450525F00564D4450455F41
:100C9000003A323A007C005F564D445045000D0A40
:020CA000000052
:00000001FF
